{
	"6-localVariable.sol": {
		"LocalVariable": {
			"abi": [
				{
					"inputs": [],
					"name": "local",
					"outputs": [
						{
							"internalType": "address",
							"name": "",
							"type": "address"
						},
						{
							"internalType": "uint256",
							"name": "",
							"type": "uint256"
						},
						{
							"internalType": "uint256",
							"name": "",
							"type": "uint256"
						}
					],
					"stateMutability": "nonpayable",
					"type": "function"
				},
				{
					"inputs": [],
					"name": "myNumber",
					"outputs": [
						{
							"internalType": "uint256",
							"name": "",
							"type": "uint256"
						}
					],
					"stateMutability": "view",
					"type": "function"
				}
			],
			"devdoc": {
				"kind": "dev",
				"methods": {},
				"version": 1
			},
			"evm": {
				"assembly": "    /* \"6-localVariable.sol\":271:866  contract LocalVariable {... */\n  mstore(0x40, 0x80)\n  callvalue\n  dup1\n  iszero\n  tag_1\n  jumpi\n  0x00\n  dup1\n  revert\ntag_1:\n  pop\n  dataSize(sub_0)\n  dup1\n  dataOffset(sub_0)\n  0x00\n  codecopy\n  0x00\n  return\nstop\n\nsub_0: assembly {\n        /* \"6-localVariable.sol\":271:866  contract LocalVariable {... */\n      mstore(0x40, 0x80)\n      callvalue\n      dup1\n      iszero\n      tag_1\n      jumpi\n      0x00\n      dup1\n      revert\n    tag_1:\n      pop\n      jumpi(tag_2, lt(calldatasize, 0x04))\n      shr(0xe0, calldataload(0x00))\n      dup1\n      0x0f166ad4\n      eq\n      tag_3\n      jumpi\n      dup1\n      0x23fd0e40\n      eq\n      tag_4\n      jumpi\n    tag_2:\n      0x00\n      dup1\n      revert\n        /* \"6-localVariable.sol\":449:864  function local() public returns (address, uint256 , uint256) {... */\n    tag_3:\n      tag_5\n      tag_6\n      jump\t// in\n    tag_5:\n      mload(0x40)\n      tag_7\n      swap4\n      swap3\n      swap2\n      swap1\n      tag_8\n      jump\t// in\n    tag_7:\n      mload(0x40)\n      dup1\n      swap2\n      sub\n      swap1\n      return\n        /* \"6-localVariable.sol\":300:323  uint256 public myNumber */\n    tag_4:\n      tag_9\n      tag_10\n      jump\t// in\n    tag_9:\n      mload(0x40)\n      tag_11\n      swap2\n      swap1\n      tag_12\n      jump\t// in\n    tag_11:\n      mload(0x40)\n      dup1\n      swap2\n      sub\n      swap1\n      return\n        /* \"6-localVariable.sol\":449:864  function local() public returns (address, uint256 , uint256) {... */\n    tag_6:\n        /* \"6-localVariable.sol\":482:489  address */\n      0x00\n        /* \"6-localVariable.sol\":491:498  uint256 */\n      dup1\n        /* \"6-localVariable.sol\":501:508  uint256 */\n      0x00\n        /* \"6-localVariable.sol\":591:602  uint256 num */\n      dup1\n        /* \"6-localVariable.sol\":605:608  350 */\n      0x015e\n        /* \"6-localVariable.sol\":591:608  uint256 num = 350 */\n      swap1\n      pop\n        /* \"6-localVariable.sol\":625:627  50 */\n      0x32\n        /* \"6-localVariable.sol\":618:627  num += 50 */\n      dup2\n      tag_14\n      swap2\n      swap1\n      tag_15\n      jump\t// in\n    tag_14:\n      swap1\n      pop\n        /* \"6-localVariable.sol\":721:724  num */\n      dup1\n        /* \"6-localVariable.sol\":710:718  myNumber */\n      0x00\n        /* \"6-localVariable.sol\":710:724  myNumber = num */\n      dup2\n      swap1\n      sstore\n      pop\n        /* \"6-localVariable.sol\":734:751  address myAddress */\n      0x00\n        /* \"6-localVariable.sol\":762:804  0x5B38Da6a701c568545dCfcB03FcB875f56beddC4 */\n      0x5b38da6a701c568545dcfcb03fcb875f56beddc4\n        /* \"6-localVariable.sol\":734:805  address myAddress = address(0x5B38Da6a701c568545dCfcB03FcB875f56beddC4) */\n      swap1\n      pop\n        /* \"6-localVariable.sol\":832:841  myAddress */\n      dup1\n        /* \"6-localVariable.sol\":843:851  myNumber */\n      sload(0x00)\n        /* \"6-localVariable.sol\":853:856  num */\n      dup4\n        /* \"6-localVariable.sol\":824:857  return (myAddress, myNumber, num) */\n      swap5\n      pop\n      swap5\n      pop\n      swap5\n      pop\n      pop\n      pop\n        /* \"6-localVariable.sol\":449:864  function local() public returns (address, uint256 , uint256) {... */\n      swap1\n      swap2\n      swap3\n      jump\t// out\n        /* \"6-localVariable.sol\":300:323  uint256 public myNumber */\n    tag_10:\n      sload(0x00)\n      dup2\n      jump\t// out\n        /* \"#utility.yul\":7:133   */\n    tag_16:\n        /* \"#utility.yul\":44:51   */\n      0x00\n        /* \"#utility.yul\":84:126   */\n      0xffffffffffffffffffffffffffffffffffffffff\n        /* \"#utility.yul\":77:82   */\n      dup3\n        /* \"#utility.yul\":73:127   */\n      and\n        /* \"#utility.yul\":62:127   */\n      swap1\n      pop\n        /* \"#utility.yul\":7:133   */\n      swap2\n      swap1\n      pop\n      jump\t// out\n        /* \"#utility.yul\":139:235   */\n    tag_17:\n        /* \"#utility.yul\":176:183   */\n      0x00\n        /* \"#utility.yul\":205:229   */\n      tag_25\n        /* \"#utility.yul\":223:228   */\n      dup3\n        /* \"#utility.yul\":205:229   */\n      tag_16\n      jump\t// in\n    tag_25:\n        /* \"#utility.yul\":194:229   */\n      swap1\n      pop\n        /* \"#utility.yul\":139:235   */\n      swap2\n      swap1\n      pop\n      jump\t// out\n        /* \"#utility.yul\":241:359   */\n    tag_18:\n        /* \"#utility.yul\":328:352   */\n      tag_27\n        /* \"#utility.yul\":346:351   */\n      dup2\n        /* \"#utility.yul\":328:352   */\n      tag_17\n      jump\t// in\n    tag_27:\n        /* \"#utility.yul\":323:326   */\n      dup3\n        /* \"#utility.yul\":316:353   */\n      mstore\n        /* \"#utility.yul\":241:359   */\n      pop\n      pop\n      jump\t// out\n        /* \"#utility.yul\":365:442   */\n    tag_19:\n        /* \"#utility.yul\":402:409   */\n      0x00\n        /* \"#utility.yul\":431:436   */\n      dup2\n        /* \"#utility.yul\":420:436   */\n      swap1\n      pop\n        /* \"#utility.yul\":365:442   */\n      swap2\n      swap1\n      pop\n      jump\t// out\n        /* \"#utility.yul\":448:566   */\n    tag_20:\n        /* \"#utility.yul\":535:559   */\n      tag_30\n        /* \"#utility.yul\":553:558   */\n      dup2\n        /* \"#utility.yul\":535:559   */\n      tag_19\n      jump\t// in\n    tag_30:\n        /* \"#utility.yul\":530:533   */\n      dup3\n        /* \"#utility.yul\":523:560   */\n      mstore\n        /* \"#utility.yul\":448:566   */\n      pop\n      pop\n      jump\t// out\n        /* \"#utility.yul\":572:1014   */\n    tag_8:\n        /* \"#utility.yul\":721:725   */\n      0x00\n        /* \"#utility.yul\":759:761   */\n      0x60\n        /* \"#utility.yul\":748:757   */\n      dup3\n        /* \"#utility.yul\":744:762   */\n      add\n        /* \"#utility.yul\":736:762   */\n      swap1\n      pop\n        /* \"#utility.yul\":772:843   */\n      tag_32\n        /* \"#utility.yul\":840:841   */\n      0x00\n        /* \"#utility.yul\":829:838   */\n      dup4\n        /* \"#utility.yul\":825:842   */\n      add\n        /* \"#utility.yul\":816:822   */\n      dup7\n        /* \"#utility.yul\":772:843   */\n      tag_18\n      jump\t// in\n    tag_32:\n        /* \"#utility.yul\":853:925   */\n      tag_33\n        /* \"#utility.yul\":921:923   */\n      0x20\n        /* \"#utility.yul\":910:919   */\n      dup4\n        /* \"#utility.yul\":906:924   */\n      add\n        /* \"#utility.yul\":897:903   */\n      dup6\n        /* \"#utility.yul\":853:925   */\n      tag_20\n      jump\t// in\n    tag_33:\n        /* \"#utility.yul\":935:1007   */\n      tag_34\n        /* \"#utility.yul\":1003:1005   */\n      0x40\n        /* \"#utility.yul\":992:1001   */\n      dup4\n        /* \"#utility.yul\":988:1006   */\n      add\n        /* \"#utility.yul\":979:985   */\n      dup5\n        /* \"#utility.yul\":935:1007   */\n      tag_20\n      jump\t// in\n    tag_34:\n        /* \"#utility.yul\":572:1014   */\n      swap5\n      swap4\n      pop\n      pop\n      pop\n      pop\n      jump\t// out\n        /* \"#utility.yul\":1020:1242   */\n    tag_12:\n        /* \"#utility.yul\":1113:1117   */\n      0x00\n        /* \"#utility.yul\":1151:1153   */\n      0x20\n        /* \"#utility.yul\":1140:1149   */\n      dup3\n        /* \"#utility.yul\":1136:1154   */\n      add\n        /* \"#utility.yul\":1128:1154   */\n      swap1\n      pop\n        /* \"#utility.yul\":1164:1235   */\n      tag_36\n        /* \"#utility.yul\":1232:1233   */\n      0x00\n        /* \"#utility.yul\":1221:1230   */\n      dup4\n        /* \"#utility.yul\":1217:1234   */\n      add\n        /* \"#utility.yul\":1208:1214   */\n      dup5\n        /* \"#utility.yul\":1164:1235   */\n      tag_20\n      jump\t// in\n    tag_36:\n        /* \"#utility.yul\":1020:1242   */\n      swap3\n      swap2\n      pop\n      pop\n      jump\t// out\n        /* \"#utility.yul\":1248:1428   */\n    tag_21:\n        /* \"#utility.yul\":1296:1373   */\n      0x4e487b7100000000000000000000000000000000000000000000000000000000\n        /* \"#utility.yul\":1293:1294   */\n      0x00\n        /* \"#utility.yul\":1286:1374   */\n      mstore\n        /* \"#utility.yul\":1393:1397   */\n      0x11\n        /* \"#utility.yul\":1390:1391   */\n      0x04\n        /* \"#utility.yul\":1383:1398   */\n      mstore\n        /* \"#utility.yul\":1417:1421   */\n      0x24\n        /* \"#utility.yul\":1414:1415   */\n      0x00\n        /* \"#utility.yul\":1407:1422   */\n      revert\n        /* \"#utility.yul\":1434:1625   */\n    tag_15:\n        /* \"#utility.yul\":1474:1477   */\n      0x00\n        /* \"#utility.yul\":1493:1513   */\n      tag_39\n        /* \"#utility.yul\":1511:1512   */\n      dup3\n        /* \"#utility.yul\":1493:1513   */\n      tag_19\n      jump\t// in\n    tag_39:\n        /* \"#utility.yul\":1488:1513   */\n      swap2\n      pop\n        /* \"#utility.yul\":1527:1547   */\n      tag_40\n        /* \"#utility.yul\":1545:1546   */\n      dup4\n        /* \"#utility.yul\":1527:1547   */\n      tag_19\n      jump\t// in\n    tag_40:\n        /* \"#utility.yul\":1522:1547   */\n      swap3\n      pop\n        /* \"#utility.yul\":1570:1571   */\n      dup3\n        /* \"#utility.yul\":1567:1568   */\n      dup3\n        /* \"#utility.yul\":1563:1572   */\n      add\n        /* \"#utility.yul\":1556:1572   */\n      swap1\n      pop\n        /* \"#utility.yul\":1591:1594   */\n      dup1\n        /* \"#utility.yul\":1588:1589   */\n      dup3\n        /* \"#utility.yul\":1585:1595   */\n      gt\n        /* \"#utility.yul\":1582:1618   */\n      iszero\n      tag_41\n      jumpi\n        /* \"#utility.yul\":1598:1616   */\n      tag_42\n      tag_21\n      jump\t// in\n    tag_42:\n        /* \"#utility.yul\":1582:1618   */\n    tag_41:\n        /* \"#utility.yul\":1434:1625   */\n      swap3\n      swap2\n      pop\n      pop\n      jump\t// out\n\n    auxdata: 0xa2646970667358221220a0de91e5fd6a926401ff92d192ae36d307cecc076ee01b1199f5d2c4a79c83b064736f6c63430008160033\n}\n",
				"bytecode": {
					"linkReferences": {},
					"object": "608060405234801561000f575f80fd5b506101fd8061001d5f395ff3fe608060405234801561000f575f80fd5b5060043610610034575f3560e01c80630f166ad41461003857806323fd0e4014610058575b5f80fd5b610040610076565b60405161004f93929190610119565b60405180910390f35b6100606100bd565b60405161006d919061014e565b60405180910390f35b5f805f8061015e905060328161008c9190610194565b9050805f819055505f735b38da6a701c568545dcfcb03fcb875f56beddc49050805f54839450945094505050909192565b5f5481565b5f73ffffffffffffffffffffffffffffffffffffffff82169050919050565b5f6100eb826100c2565b9050919050565b6100fb816100e1565b82525050565b5f819050919050565b61011381610101565b82525050565b5f60608201905061012c5f8301866100f2565b610139602083018561010a565b610146604083018461010a565b949350505050565b5f6020820190506101615f83018461010a565b92915050565b7f4e487b71000000000000000000000000000000000000000000000000000000005f52601160045260245ffd5b5f61019e82610101565b91506101a983610101565b92508282019050808211156101c1576101c0610167565b5b9291505056fea2646970667358221220a0de91e5fd6a926401ff92d192ae36d307cecc076ee01b1199f5d2c4a79c83b064736f6c63430008160033",
					"opcodes": "PUSH1 0x80 PUSH1 0x40 MSTORE CALLVALUE DUP1 ISZERO PUSH2 0xF JUMPI PUSH0 DUP1 REVERT JUMPDEST POP PUSH2 0x1FD DUP1 PUSH2 0x1D PUSH0 CODECOPY PUSH0 RETURN INVALID PUSH1 0x80 PUSH1 0x40 MSTORE CALLVALUE DUP1 ISZERO PUSH2 0xF JUMPI PUSH0 DUP1 REVERT JUMPDEST POP PUSH1 0x4 CALLDATASIZE LT PUSH2 0x34 JUMPI PUSH0 CALLDATALOAD PUSH1 0xE0 SHR DUP1 PUSH4 0xF166AD4 EQ PUSH2 0x38 JUMPI DUP1 PUSH4 0x23FD0E40 EQ PUSH2 0x58 JUMPI JUMPDEST PUSH0 DUP1 REVERT JUMPDEST PUSH2 0x40 PUSH2 0x76 JUMP JUMPDEST PUSH1 0x40 MLOAD PUSH2 0x4F SWAP4 SWAP3 SWAP2 SWAP1 PUSH2 0x119 JUMP JUMPDEST PUSH1 0x40 MLOAD DUP1 SWAP2 SUB SWAP1 RETURN JUMPDEST PUSH2 0x60 PUSH2 0xBD JUMP JUMPDEST PUSH1 0x40 MLOAD PUSH2 0x6D SWAP2 SWAP1 PUSH2 0x14E JUMP JUMPDEST PUSH1 0x40 MLOAD DUP1 SWAP2 SUB SWAP1 RETURN JUMPDEST PUSH0 DUP1 PUSH0 DUP1 PUSH2 0x15E SWAP1 POP PUSH1 0x32 DUP2 PUSH2 0x8C SWAP2 SWAP1 PUSH2 0x194 JUMP JUMPDEST SWAP1 POP DUP1 PUSH0 DUP2 SWAP1 SSTORE POP PUSH0 PUSH20 0x5B38DA6A701C568545DCFCB03FCB875F56BEDDC4 SWAP1 POP DUP1 PUSH0 SLOAD DUP4 SWAP5 POP SWAP5 POP SWAP5 POP POP POP SWAP1 SWAP2 SWAP3 JUMP JUMPDEST PUSH0 SLOAD DUP2 JUMP JUMPDEST PUSH0 PUSH20 0xFFFFFFFFFFFFFFFFFFFFFFFFFFFFFFFFFFFFFFFF DUP3 AND SWAP1 POP SWAP2 SWAP1 POP JUMP JUMPDEST PUSH0 PUSH2 0xEB DUP3 PUSH2 0xC2 JUMP JUMPDEST SWAP1 POP SWAP2 SWAP1 POP JUMP JUMPDEST PUSH2 0xFB DUP2 PUSH2 0xE1 JUMP JUMPDEST DUP3 MSTORE POP POP JUMP JUMPDEST PUSH0 DUP2 SWAP1 POP SWAP2 SWAP1 POP JUMP JUMPDEST PUSH2 0x113 DUP2 PUSH2 0x101 JUMP JUMPDEST DUP3 MSTORE POP POP JUMP JUMPDEST PUSH0 PUSH1 0x60 DUP3 ADD SWAP1 POP PUSH2 0x12C PUSH0 DUP4 ADD DUP7 PUSH2 0xF2 JUMP JUMPDEST PUSH2 0x139 PUSH1 0x20 DUP4 ADD DUP6 PUSH2 0x10A JUMP JUMPDEST PUSH2 0x146 PUSH1 0x40 DUP4 ADD DUP5 PUSH2 0x10A JUMP JUMPDEST SWAP5 SWAP4 POP POP POP POP JUMP JUMPDEST PUSH0 PUSH1 0x20 DUP3 ADD SWAP1 POP PUSH2 0x161 PUSH0 DUP4 ADD DUP5 PUSH2 0x10A JUMP JUMPDEST SWAP3 SWAP2 POP POP JUMP JUMPDEST PUSH32 0x4E487B7100000000000000000000000000000000000000000000000000000000 PUSH0 MSTORE PUSH1 0x11 PUSH1 0x4 MSTORE PUSH1 0x24 PUSH0 REVERT JUMPDEST PUSH0 PUSH2 0x19E DUP3 PUSH2 0x101 JUMP JUMPDEST SWAP2 POP PUSH2 0x1A9 DUP4 PUSH2 0x101 JUMP JUMPDEST SWAP3 POP DUP3 DUP3 ADD SWAP1 POP DUP1 DUP3 GT ISZERO PUSH2 0x1C1 JUMPI PUSH2 0x1C0 PUSH2 0x167 JUMP JUMPDEST JUMPDEST SWAP3 SWAP2 POP POP JUMP INVALID LOG2 PUSH5 0x6970667358 0x22 SLT KECCAK256 LOG0 0xDE SWAP2 0xE5 REVERT PUSH11 0x926401FF92D192AE36D307 0xCE 0xCC SMOD PUSH15 0xE01B1199F5D2C4A79C83B064736F6C PUSH4 0x43000816 STOP CALLER "
				},
				"gasEstimates": {
					"creation": {
						"codeDepositCost": "101800",
						"executionCost": "145",
						"totalCost": "101945"
					},
					"external": {
						"local()": "infinite",
						"myNumber()": "2424"
					}
				},
				"methodIdentifiers": {
					"local()": "0f166ad4",
					"myNumber()": "23fd0e40"
				}
			},
			"storageLayout": {
				"storage": [
					{
						"astId": 3,
						"contract": "6-localVariable.sol:LocalVariable",
						"label": "myNumber",
						"offset": 0,
						"slot": "0",
						"type": "t_uint256"
					}
				],
				"types": {
					"t_uint256": {
						"encoding": "inplace",
						"label": "uint256",
						"numberOfBytes": "32"
					}
				}
			},
			"userdoc": {
				"kind": "user",
				"methods": {},
				"version": 1
			}
		}
	}
}